:020000040800F2
:1000000000500020891D0008ED040008EF040008DE
:10001000F1040008F3040008F504000800000000E3
:10002000000000000000000000000000F7040008CD
:10003000F904000800000000FB040008FD040008AB
:10004000D11D0008D11D0008D11D0008D11D0008D8
:10005000D11D0008D11D0008D11D0008D11D0008C8
:10006000D11D0008D11D0008D11D0008D11D0008B8
:10007000D11D0008D11D0008D11D0008D11D0008A8
:10008000D11D0008D11D0008D11D0008D11D000898
:1000900005050008D11D0008D11D0008D11D00086C
:1000A000D11D0008D11D0008D11D0008D11D000878
:1000B000D11D0008D11D0008D11D0008D11D000868
:1000C000D11D0008D11D0008D11D0008D11D000858
:1000D000D11D0008D11D0008D11D0008D11D000848
:1000E000D11D0008D11D0008D11D0008000000002E
:1000F0000000000000000000000000000000000000
:0C01000000000000000000005FF808F1A3
:10010C0010B5054C237833B9044B13B10448AFF345
:10011C0000800123237010BD980000200000000017
:10012C00AC26000808B5034B1BB103490348AFF3D9
:10013C00008008BD000000009C000020AC260008D8
:10014C00034613F8012B002AFBD1181A013870470B
:10015C002DE9F04188B0002404940594069407948A
:10016C00254B9A6942F010029A619A6902F01002CA
:10017C000092009A9A6942F020029A619A6902F000
:10018C0020020192019A9A6942F004029A619A69DA
:10019C0002F004020292029A9A6942F008029A61F1
:1001AC009B6903F008030393039BDFF854802246FA
:1001BC004FF40051404601F063FA104D22463C21A9
:1001CC00284601F05DFA4FF400530493012705977C
:1001DC0006940226079604A9404601F041F93C23F7
:1001EC00049305970694079604A9284601F038F95C
:1001FC0008B0BDE8F08100BF0010024000080140CB
:10020C000010014008B50B480B4B036009234360F9
:10021C0000238360C3604FF4402202614FF48012CC
:10022C004261037643768376C3760377437700F097
:10023C0067FA08BD0C0100200064004008B50848AE
:10024C00084B03604FF4E133436000238360C360C9
:10025C0003610C2242618361C36101F0EFFC08BDB4
:10026C00340100200038014030B58BB000240894D4
:10027C0009940194029403940494059406940794AD
:10028C00134D144B2B606C60AC604FF6FF73EB603E
:10029C002C61AC61284601F029FB0894099408A94B
:1002AC00284601F00DFC60230193029403940594FD
:1002BC00224601A9284601F065FB04220DEB020140
:1002CC00284601F05FFB284600F090F90BB030BDDA
:1002DC00CC0000200008004010B504464FF400513B
:1002EC00064801F0D3F9064B064A0021204600F0DF
:1002FC005AFB054B01221A7010BD00BF00100140C3
:10030C00B400002078010020BC00002030B591B072
:10031C00002409940B940C94019402940394049477
:10032C000594012206924FF48033079308940A92A5
:10033C0002250D950E934FF4E0130F9306A800F0D1
:10034C0075FD0F2301930295802303930494059468
:10035C00294601A800F0A8FF11B030BD0FB400B5BC
:10036C00C3B044AA52F8041B019202A801F066FD26
:10037C0002A8FFF7E5FE4FF6FF7382B202A904480C
:10038C0001F08BFC002043B05DF804EB04B0704727
:10039C003401002070B584B000F00EFDFFF7B6FFFD
:1003AC00FFF7D6FEFFF72EFFFFF748FFFFF75CFFC6
:1003BC00414C4249204600F049FA0221204600F007
:1003CC0092FB204600F0C1FA3D4C0021204601F082
:1003DC0059FB0421204601F055FB01224FF400513A
:1003EC00384801F04DF935E000222021364801F063
:1003FC0047F949E000221021334801F041F94BE064
:10040C0000220821304801F03BF914F0080F4CD0C1
:10041C00012204212C4801F033F9294B1B682A01D5
:10042C005A6332019A63294A9378D17810790290F1
:10043C000191009353781278254909682548FFF7F4
:10044C008DFF33462A4621462348FFF787FF234B6F
:10045C0000221A70214B1B78002BFBD01B490C7807
:10046C004D788B781B0203F470631D43CE780B79A7
:10047C001B0203F470631E4314F0010FB4D001226D
:10048C002021114801F0FCF814F0020FB2D0012227
:10049C0010210D4801F0F4F814F0040FB0D0012233
:1004AC000821094801F0ECF8AFE7002204210648C6
:1004BC0001F0E6F8B1E700BF0C01002000000020BD
:1004CC00CC0000200010014000080140B4000020C6
:1004DC0078010020C4260008F8260008BC00002083
:1004EC007047FEE7FEE7FEE7FEE770477047704790
:1004FC0008B500F073FC08BD08B5024800F011FB0C
:10050C0008BD00BF0C01002082B00A4B9A6942F072
:10051C0001029A619A6902F001020092009ADA696A
:10052C0042F08052DA61DB6903F080530193019B46
:10053C0002B070470010024030B587B00023029320
:10054C0003930493059302681B4B9A4201D007B0A6
:10055C0030BD03F5D633DA6942F00072DA61DA693C
:10056C0002F000720092009A9A6942F004029A61B9
:10057C009B6903F004030193019B4FF40063029306
:10058C000024039404940D4D02A9284600F068FF42
:10059C004FF480530293022303930323059302A980
:1005AC00284600F05DFF22462146142001F088F811
:1005BC00142001F0B9F8CAE70064004000080140BB
:1005CC000268094B9A4200D0704782B003F502339F
:1005DC00DA6942F00402DA61DB6903F00403019387
:1005EC00019B02B0704700BF0008004000B587B007
:1005FC000023029303930493059302680D4B9A42D4
:10060C0002D007B05DF804FB03F502339A6942F09F
:10061C0008029A619B6903F008030193019BC023B4
:10062C00029302230393059302A9034800F018FFD9
:10063C00E7E700BF00080040000C014010B586B091
:10064C00002302930393049305930268174B9A4279
:10065C0001D006B010BD03F558439A6942F48042AC
:10066C009A619A6902F480420092009A9A6942F067
:10067C0004029A619B6903F004030193019B4FF4FC
:10068C00007302930223039303230593084C02A9DE
:10069C00204600F0E5FE4FF48063029300230393A1
:1006AC00049302A9204600F0DBFED2E7003801409B
:1006BC00000801400F4B1A6842F001021A60596899
:1006CC000D4A0A405A601A6822F0847222F4803271
:1006DC001A601A6822F480221A605A6822F4FE0208
:1006EC005A604FF41F029A60044B4FF000629A60FC
:1006FC00704700BF001002400000FFF800ED00E062
:10070C00002800F0A18038B5044690F82030D3B111
:10071C002268136823F00203136000F06BFB05469C
:10072C0023685A6812F0020F10D000F063FB401BD4
:10073C000A28F5D9636A43F400336362052384F80D
:10074C002030012038BDFFF7F7FEE1E71A6842F0D0
:10075C0001021A6000F04EFB054623685A6812F03D
:10076C00010F0DD100F046FB401B0A28F5D9636A36
:10077C0043F400336362052384F820300120E1E761
:10078C00227E012A3DD01A6822F080021A60637E14
:10079C00012B3BD02268136823F040031360A37E27
:1007AC00012B39D02268136823F020031360E37EF9
:1007BC00012B37D02268136843F010031360237F9A
:1007CC00012B35D02268136823F008031360637F74
:1007DC00012B33D02268136823F004031360A36841
:1007EC00E268134322691343626913436268013A56
:1007FC0021681343CB6100206062012384F8203010
:10080C00A0E71A6842F080021A60C0E722681368F9
:10081C0043F040031360C2E72268136843F02003DF
:10082C001360C4E72268136823F010031360C6E753
:10083C002268136843F008031360C8E72268136842
:10084C0043F004031360CAE701207047026890F874
:10085C002030013BDBB2012B05D9436A43F48023E2
:10086C0043620120704770B4D2F8003243F00103A8
:10087C00C2F800324B6903F01F03012000FA03F3A6
:10088C00D2F81C02DC4320EA0300C2F81C02C8693F
:10089C00A8B9D2F80C022040C2F80C02CE688D88A0
:1008AC00486945EA0645483042F830508E680D8854
:1008BC00486945EA0645483002EBC0004560C86906
:1008CC00012819D0886970BBD2F804022040C2F804
:1008DC000402086968BBD2F814020440C2F814423E
:1008EC00096A01292BD0D2F8003223F00103C2F897
:1008FC000032002070BC7047D2F80C021843C2F8CA
:10090C000C020E688D88486945EA0645483042F865
:10091C0030508E688D89486945EA0645483002EBAF
:10092C00C0004560CEE7D2F804021843C2F80402B6
:10093C00CFE7D2F814021843C2F81402D0E7D2F869
:10094C001C120B43C2F81C32CDE770B5044690F86C
:10095C002050EDB2012D06D0436A43F400234362CC
:10096C000125284670BD022380F8203002681368E8
:10097C0023F00103136000F03DFA064623685B6820
:10098C0013F0010F0CD000F035FA831B0A2BF5D9AC
:10099C00636A43F400336362052384F82030E0E794
:1009AC0000256562DDE730B490F82040013CE4B2EC
:1009BC00012C00F2918051B90468E46814F0030F23
:1009CC0010D1436A43F400134362012089E00468A8
:1009DC00246914F0030F05D1436A43F400134362F6
:1009EC0001207EE0056801F11B0424012C5904F060
:1009FC0004049460002C61D1056801F11B042401EE
:100A0C002C59640D1460056801F11B0424012D5947
:100A1C0005F00205D560056825446D6805F00F05E5
:100A2C001561056825446D68C5F307259561056852
:100A3C002C446468240C5461026802EB0112D2F855
:100A4C00B8211A70026802EB0112D2F8B821C2F375
:100A5C0007225A70026802EB0112D2F8B821C2F3D5
:100A6C0007429A70026802EB0112D2F8B821120EFA
:100A7C00DA70026802EB0112D2F8BC211A7102681A
:100A8C0002EB0112D2F8BC21C2F307225A710268A0
:100A9C0002EB0112D2F8BC21C2F307429A71026830
:100AAC0002EB0112D2F8BC21120EDA7171B9026894
:100ABC00D36843F02003D360002012E0056801F1F5
:100ACC001B0424012C59E40854609CE70268136948
:100ADC0043F020031361EFE7436A43F4802343623E
:100AEC00012030BC704790F82030013BDBB2012B69
:100AFC0005D9436A43F4802343620120704702689E
:100B0C005369194351610020704770477047704713
:100B1C007047704770477047704770477047704711
:100B2C0070472DE9F84F054603685C69D3F80480DB
:100B3C009F68D3F80CB0D3F810A0D3F8189014F029
:100B4C0001063BD017F0010616D001229A6017F06F
:100B5C00020F08D117F0040F0CD117F0080606D0BD
:100B6C004FF4805608E0FFF7D0FF002604E0FFF7B3
:100B7C00CFFF01E04FF4006617F4807F0DD02B6897
:100B8C004FF480729A6017F4007F40F0868017F45F
:100B9C00806F00F0868046F4005617F4803F0DD02D
:100BAC002B684FF480329A6017F4003F40F083803A
:100BBC0017F4802F00F0838046F4004614F0080FE1
:100BCC0007D01BF0100F04D046F400762B681022CF
:100BDC00DA6014F0040F02D01BF0080F79D114F076
:100BEC00020F04D02B68DB6813F0030F78D114F0DC
:100BFC00400F07D01AF0100F04D046F480662B6813
:100C0C0010221A6114F0200F02D01AF0080F6BD1C9
:100C1C0014F0100F04D02B681B6913F0030F6AD16A
:100C2C0014F4003F02D018F0100F68D114F4803F78
:100C3C0002D018F0080F69D114F4004F7AD018F0D4
:100C4C00040F74D014F4807F04D019F0010F01D07C
:100C5C0046F0010614F4007F04D019F0020F01D005
:100C6C0046F0020614F4806F04D019F0040F01D082
:100C7C0046F0040614F4006F59D019F0700956D0E0
:100C8C00B9F1400F65D058D8B9F1200F5ED0B9F149
:100C9C00300F42D146F0200644E02846FFF736FFDD
:100CAC007BE717F4006F02D046F4804675E72846C0
:100CBC00FFF72FFF71E72846FFF729FF7EE717F4B0
:100CCC00002F02D046F4803678E72846FFF722FF43
:100CDC0074E72B680822DA602846FFF71CFF7EE7D2
:100CEC002846FFF7F9FA82E72B6808221A61284692
:100CFC00FFF713FF8CE72846FFF70EFF90E72B68F2
:100D0C0010225A602846FFF709FF8FE72B6808224C
:100D1C005A602846FFF703FF8EE7B9F1100F01D197
:100D2C0046F008062A68936923F0700393612B68D8
:100D3C0004225A609EB9BDE8F88FB9F1500F0BD060
:100D4C00B9F1600FEED146F48076EBE746F0100671
:100D5C00E8E746F04006E5E746F08006E2E76B6A16
:100D6C001E436E622846FFF7DBFEE4E710B504462F
:100D7C000E4B18784FF47A73B3FBF0F30C4A1068EF
:100D8C00B0FBF3F000F0DEFC68B90F2C01D90120A8
:100D9C000AE0002221464FF0FF3000F091FC054B99
:100DAC001C60002000E0012010BD00BF2C000020C2
:100DBC00280000203000002008B5074A136843F0D3
:100DCC0010031360032000F069FC0020FFF7CEFF36
:100DDC00FFF79AFB002008BD00200240034A11686F
:100DEC00034B1B780B441360704700BF9401002029
:100DFC002C000020014B1868704700BF94010020A4
:100E0C0082B0084B1B68084AA2FB03235B0A00FB59
:100E1C0003F3019300BF019B5A1E0192002BF9D1E1
:100E2C0002B0704728000020D34D6210002800F05B
:100E3C00F18170B582B00446036813F0010F2CD019
:100E4C00AA4B5B6803F00C03042B1DD0A74B5B680B
:100E5C0003F00C03082B12D06368B3F5803F41D02C
:100E6C00002B55D103F1804303F504331A6822F4A7
:100E7C0080321A601A6822F480221A6037E09B4B89
:100E8C005B6813F4803FE7D0984B1B6813F4003F6A
:100E9C0003D06368002B00F0BF81236813F0020FAE
:100EAC0075D0924B5B6813F00C0F5FD08F4B5B6867
:100EBC0003F00C03082B54D02369002B00F089801D
:100ECC008B4B01221A60FFF795FF0546874B1B6879
:100EDC0013F0020F74D1FFF78DFF401B0228F5D9D8
:100EEC0003209EE1814A136843F4803313606368E6
:100EFC0043B3FFF77FFF05467C4B1B6813F4003FA1
:100F0C00CBD1FFF777FF401B6428F5D9032088E18C
:100F1C00B3F5A02F09D0754B1A6822F480321A60F1
:100F2C001A6822F480221A60E1E703F18043A3F5EA
:100F3C003C331A6842F480221A601A6842F48032F8
:100F4C001A60D4E7FFF756FF0546684B1B6813F48D
:100F5C00003FA2D0FFF74EFF401B6428F5D90320B9
:100F6C005FE1624B5B6813F4803FA5D15F4B1B685C
:100F7C0013F0020F03D02369012B40F04F815B4A21
:100F8C00136823F0F803616943EAC1031360236813
:100F9C0013F0080F32D0A369002B45D0554B01221A
:100FAC001A60FFF727FF0546504B5B6A13F0020FE0
:100FBC0021D1FFF71FFF401B0228F5D9032030E198
:100FCC004A4A136823F0F803616943EAC1031360CA
:100FDC00DDE7474B00221A60FFF70CFF0546434B39
:100FEC001B6813F0020FD2D0FFF704FF401B02283E
:100FFC00F5D9032015E10120FFF702FF236813F058
:10100C00040F00F09780394BDB6913F0805F1DD122
:10101C00364BDA6942F08052DA61DB6903F08053B7
:10102C000193019B012512E0324B00221A60FFF75D
:10103C00E1FE05462D4B5B6A13F0020FDED0FFF785
:10104C00D9FE401B0228F5D90320EAE000252A4BE3
:10105C001B6813F4807F11D0E368012B22D0002B86
:10106C0038D103F1804303F504331A6A22F00102EC
:10107C001A621A6A22F004021A6218E01E4A1368F5
:10108C0043F480731360FFF7B5FE06461A4B1B68DA
:10109C0013F4807FE0D1FFF7ADFE801B6428F5D9F7
:1010AC000320BEE0114A136A43F001031362E368A4
:1010BC0073B3FFF79FFE06460C4B1B6A13F0020F2F
:1010CC0037D1FFF797FE801B41F288339842F3D952
:1010DC000320A6E0052B11D0044B1A6A22F0010262
:1010EC001A621A6A22F004021A62E0E70010024047
:1010FC000000424280044242007000404D4B1A6A8C
:10110C0042F004021A621A6A42F001021A62CEE735
:10111C00FFF770FE0646474B1B6A13F0020F08D010
:10112C00FFF768FE801B41F288339842F3D9032005
:10113C0077E0E5B9E369002B72D03E4A526802F0C1
:10114C000C02082A56D0022B17D03B4B00221A60F7
:10115C00FFF750FE0446374B1B6813F0007F47D057
:10116C00FFF748FE001B0228F5D9032059E0314A4D
:10117C00D36923F08053D361DCE72F4B00221A6034
:10118C00FFF738FE05462B4B1B6813F0007F06D08B
:10119C00FFF730FE401B0228F5D9032041E0236AFB
:1011AC00B3F5803F1AD023494B6823F47413226A99
:1011BC00606A024313434B601F4B01221A60FFF716
:1011CC0019FE04461B4B1B6813F0007F0ED1FFF772
:1011DC0011FE001B0228F5D9032022E0154A5368A2
:1011EC0023F40033A1680B435360DCE7002018E0C4
:1011FC00002016E0012B16D00E4B5B6803F48031F7
:10120C00226A914211D103F47013626A93420ED197
:10121C00002006E001207047012002E0012000E0E0
:10122C00002002B070BD0120FBE70120F9E701208E
:10123C00F7E700BF001002406000424286B0164B38
:10124C000FCB0DF1180C0CE90F0040F20123ADF897
:10125C000430124B5B6803F00C02082A02D01048D1
:10126C0006B07047C3F38342624412F8102C13F497
:10127C00803F0CD0094B5B68C3F34043634413F8C5
:10128C00143C074800FB02F0B0FBF3F0E8E705481C
:10129C0000FB02F0E4E700BF30270008001002401A
:1012AC0000127A0000093D00002800F0A08070B503
:1012BC000D460446524B1B6803F007038B420BD2BE
:1012CC004F4A136823F007030B431360136803F0B2
:1012DC0007038B4240F08D80236813F0020F17D068
:1012EC0013F0040F04D0474A536843F4E06353608F
:1012FC00236813F0080F04D0424A536843F4605338
:10130C005360404A536823F0F003A1680B435360C9
:10131C00236813F0010F31D06368012B20D0022B0E
:10132C0025D0384A126812F0020F64D035494A6849
:10133C0022F0030213434B60FFF75CFD0646314B72
:10134C005B6803F00C036268B3EB820F16D0FFF7F7
:10135C0051FD801B41F288339842F0D9032045E0BF
:10136C00284A126812F4003FE0D101203EE0254AE1
:10137C00126812F0007FD9D1012037E0204B1B6896
:10138C0003F00703AB420AD91D4A136823F0070385
:10139C002B431360136803F00703AB422DD1236872
:1013AC0013F0040F06D0174A536823F4E063E16886
:1013BC000B435360236813F0080F07D0114A53688E
:1013CC0023F46053216943EAC1035360FFF736FFEE
:1013DC000C4B5B68C3F303130B4AD35CD8400B4B29
:1013EC0018600B4B1868FFF7C1FC002070BD012082
:1013FC0070470120FAE70120F8E70120F6E700BF6B
:10140C00002002400010024018270008280000208D
:10141C0030000020014B1868704700BF28000020E6
:10142C0008B5FFF7F7FF044B5B68C3F30223034ACD
:10143C00D35CD84008BD00BF00100240282700082C
:10144C0008B5FFF7E7FF044B5B68C3F3C223034AFD
:10145C00D35CD84008BD00BF00100240282700080C
:10146C00F0B482B000252C46A3E07F4FBB4210D0D5
:10147C0007D97E4FBB420CD007F58037BB4208D052
:10148C0013E0A7F58017BB4203D007F57027BB42CA
:10149C0007D18B68002B58D0012B51D04261082505
:1014AC0003E0A7F58017BB42F3D0FF2E4FD884463C
:1014BC00FF2E4FD8A200DCF800300F27974023EA0C
:1014CC00070305FA02F21343CCF800304B6813F013
:1014DC00805F6DD0664B9A6942F001029A619B69FC
:1014EC0003F001030193019BA208971C614B53F875
:1014FC00273004F00307BF004FF00F0C0CFA07FC69
:10150C0023EA0C0C5C4B98422AD003F5806398427A
:10151C0000F08A8003F58063984200F0878003F521
:10152C00806398421AD004231BE0CD68BDE7CD68D8
:10153C000435BAE7CD680835B7E7CD680C35B4E7A4
:10154C0002610825B1E70025AFE70425ADE700F1FE
:10155C00040CADE7A4F108029200ACE7032300E011
:10156C000023BB4043EA0C030232424F47F82230BF
:10157C004B6813F4803F5BD0404A136833431360CD
:10158C004B6813F4003F59D03C4A536833435360C3
:10159C004B6813F4801F57D0384A936833439360D9
:1015AC004B6813F4001F55D0344AD3681E43D660E1
:1015BC0001340B6833FA04F252D00122A24003EA40
:1015CC00020632EA0303F3D14B68122B3FF64DAF00
:1015DC00122B3FF66AAF01A757F823F09F140008AF
:1015EC00371500084115000853150008B7140008FA
:1015FC00B7140008B7140008B7140008B714000893
:10160C00B7140008B7140008B7140008B714000882
:10161C00B7140008B7140008B7140008B714000872
:10162C003B1500084715000801239AE7022398E7A9
:10163C00124A136823EA06031360A1E70F4A5368A2
:10164C0023EA06035360A3E70C4A936823EA0603D4
:10165C009360A5E7094AD36823EA0606D660A7E794
:10166C0002B0F0BC704700BF000022100000311027
:10167C00001002400000014000080140000401403D
:10168C000AB101617047090401617047C3680B42DC
:10169C0001D041617047016170470000074AD3686F
:1016AC0023F4E0631B041B0C000200F4E060034312
:1016BC0043F0BF6343F40033D360704700ED00E0A8
:1016CC0030B4174BDB68C3F30223C3F10704042CBB
:1016DC0028BF04241D1D062D18D9033B4FF0FF35E0
:1016EC0005FA04F421EA0401994005FA03F322EA0D
:1016FC000303194300280BDB0901C9B200F1604058
:10170C0000F5614080F8001330BC70470023E5E71A
:10171C0000F00F000901C9B2024B1954F4E700BFE5
:10172C0000ED00E014ED00E0002807DB00F01F02E4
:10173C00400901239340024A42F82030704700BF11
:10174C0000E100E00138B0F1807F0AD2064B58600E
:10175C00064AF02182F823100020986007221A60B4
:10176C0070470120704700BF10E000E000ED00E082
:10177C0070B4036A23F001030362036A466882694A
:10178C0022F073020C6844EA020523F002028B6813
:10179C0013430D4CA04209D00B4CA0420DD0466017
:1017AC0085614A684263036270BC704723F008038A
:1017BC00CA68134323F00403EEE726F440764A6923
:1017CC0032438E691643EAE7002C014030B4036AB9
:1017DC0023F480730362036A4568C26922F07302C2
:1017EC000C68224323F400738C6843EA04230F4CE7
:1017FC00A04209D00D4CA0420ED04560C2614A688F
:10180C00C263036230BC704723F40063CC6843EAC4
:10181C00042323F48063EDE725F440554C6945EA35
:10182C0004158C6945EA0415E7E700BF002C01405C
:10183C0030B4036A23F480530362036A4468C269B8
:10184C0022F4E6420D6842EA052223F400538D6827
:10185C0043EA0533074DA84206D04460C2614A688A
:10186C000264036230BC704724F480444D6944EA3E
:10187C008514F2E7002C014003681B4A90420AD001
:10188C00B0F1804F07D0A2F59432904203D002F50C
:10189C008062904203D123F070034A681343124ACA
:1018AC0090420AD0B0F1804F07D0A2F5943290420A
:1018BC0003D002F58062904203D123F44073CA68CE
:1018CC00134323F080034A69134303608B68C3629C
:1018DC000B688362044B984202D00123436170472A
:1018EC000B690363F9E700BF002C0140B0B110B5E0
:1018FC00044690F83D3063B1022384F83D30214614
:10190C0051F8040BFFF7B8FF012384F83D30002099
:10191C0010BD80F83C30FEF753FEEDE70120704718
:10192C0030B4036A23F010030362036A44688269CB
:10193C0022F4E6420D6842EA052223F020038D686A
:10194C0043EA05130E4DA84209D00D4DA8420ED006
:10195C00446082614A688263036230BC704723F042
:10196C008003CD6843EA051323F04003EDE724F42C
:10197C0040644D6944EA85048D6944EA8504E7E7CF
:10198C00002C014038B590F83C30012B66D0044651
:10199C000D46012380F83C30022380F83D300C2AA0
:1019AC001AD8DFE802F00719191920191919341976
:1019BC00191947000068FFF7DBFE2268936943F0B2
:1019CC00080393612268936923F0040393612268EE
:1019DC00936929690B439361012384F83D300020FE
:1019EC0084F83C0038BD0068FFF79AFF22689369C1
:1019FC0043F4006393612268936923F480639361D9
:101A0C0022689369296943EA01239361E4E700683A
:101A1C00FFF7DCFE2268D36943F00803D361226828
:101A2C00D36923F00403D3612268D36929690B437A
:101A3C00D361D1E70068FFF7FBFE2268D36943F45A
:101A4C000063D3612268D36923F48063D361226875
:101A5C00D369296943EA0123D361BDE70220C1E7B9
:101A6C0010B401F01F01012303FA01F4036A23EA05
:101A7C0004030362036A02FA01F10B43036210BC14
:101A8C007047000010B5044601220068FFF7E8FF1C
:101A9C0023680A4A93420BD02268936803F0070329
:101AAC00062B03D0136843F001031360002010BD14
:101ABC005A6C42F400425A64EEE700BF002C01401D
:101ACC0090F83C30012B1CD070B4012680F83C609F
:101ADC00022380F83D3002685568936825F0700544
:101AEC000C682C4323F080054B682B435460026830
:101AFC00936080F83D60002380F83C30184670BC41
:101B0C00704702207047000038B50446026813691C
:101B1C0023F44053C1680B43136183680269134378
:101B2C0042691A430168CB6823F4B05323F00C03C9
:101B3C001343CB600268536923F4407381690B43F0
:101B4C0053610268214B9A421FD0FFF769FC00EBEE
:101B5C00800000EB800063689B00B0FBF3F01C4D31
:101B6C00A5FB00325109642303FB11031B01323323
:101B7C00A5FB03235B0903F0F00202EB011203F057
:101B8C000F03216813448B6038BDFFF759FC00EB41
:101B9C00800000EB800063689B00B0FBF3F00C4D01
:101BAC00A5FB00325109642303FB11031B013233E3
:101BBC00A5FB03235B0903F0F00202EB011203F017
:101BCC000F03216813448B60DEE700BF003801402F
:101BDC001F85EB512DE9F84305460F4616469946ED
:101BEC00DDF820802C68246837EA04030CBF01243C
:101BFC000024B4421FD1B8F1FF3FF3D0B8F1000F6D
:101C0C0005D0FFF7F7F8A0EB09004045EAD92A68A0
:101C1C00D36823F4D073D3602A68536923F001038B
:101C2C005361202385F8393085F83A30002385F844
:101C3C003830032000E00020BDE8F88358B310B51D
:101C4C00044690F839300BB3242384F839302268D9
:101C5C00D36823F40053D3602046FFF755FF226866
:101C6C00136923F4904313612268536923F02A0308
:101C7C0053612268D36843F40053D3600020E063BF
:101C8C00202384F8393084F83A3010BD80F838308D
:101C9C00FEF7D4FCD8E7012070472DE9F04182B063
:101CAC001E4690F83930DBB2202B58D104460D4635
:101CBC009046002957D0002A57D090F83830012B85
:101CCC0055D0012380F838300023C363212380F8DA
:101CDC003930FFF78FF80746A4F82480A4F8268043
:101CEC0017E000963B46002280212046FFF772FF4A
:101CFC0000283ED12B882268C3F308035360236964
:101D0C000BB9023505E0013503E015F8012B23680A
:101D1C005A60E38C9BB29BB1E28C92B2013A92B2C4
:101D2C00E284A368B3F5805FDBD000963B460022CB
:101D3C0080212046FFF74EFF0028E6D003200FE05D
:101D4C0000963B46002240212046FFF743FF90B906
:101D5C00202384F83930002384F8383000E0022046
:101D6C0002B0BDE8F0810120FAE70120F8E702207B
:101D7C00F6E70320F4E70320F2E70000002103E07C
:101D8C000B4B5B58435004310A480B4B42189A4298
:101D9C00F6D30A4A02E0002342F8043B084B9A426D
:101DAC00F9D3FEF787FC00F00FF8FEF7F3FA704753
:101DBC007C270008000000209800002098000020DC
:101DCC00A8010020FEE7000070B500260C4D0D4C5C
:101DDC00641BA410A64209D100F062FC00260A4D37
:101DEC000A4C641BA410A64205D170BD55F8043BE7
:101DFC0098470136EEE755F8043B98470136F2E771
:101E0C007427000874270008742700087827000836
:101E1C0000B59BB0009104916FF0004105910291C7
:101E2C0005490391694600F06FF80022009B1A7077
:101E3C001BB05DF804FB00BF0802FFFF13460A4607
:101E4C00014602480068FFF7E3BF00BF34000020E2
:101E5C002DE9F0478E6882469E420C4690461F46FE
:101E6C0038D88A8912F4906F32D025680969013309
:101E7C00A5EB010965694B4405EB450505EBD575EB
:101E8C006D109D4238BF1D46530531D5294600F0D3
:101E9C0053FB064650B90C234FF0FF30CAF8003004
:101EAC00A38943F04003A381BDE8F0874A4621692A
:101EBC0000F0CEFAA38923F4906343F08003A3814E
:101ECC0026614E4426603E466561A5EB0905A5607A
:101EDC00BE4200D93E4632464146206800F0C6FA62
:101EEC00A36822689B1B32440020A3602260DBE7BE
:101EFC002A4600F07BFB06460028E1D150462169BA
:101F0C0000F0CEFAC7E700002DE9F04F98468B8918
:101F1C0007461B060D4614469DB00ED50B6963B9DA
:101F2C00402100F009FB2860286120B90C233B609C
:101F3C004FF0FF30D1E040236B6100230993202345
:101F4C008DF8293030234FF00109CDF80C80DFF8E3
:101F5C00A4818DF82A3023469A4613F8012B0AB136
:101F6C00252AF9D1BAEB040B0BD05B462246294645
:101F7C003846FFF76DFF013000F0AA80099A5A44E9
:101F8C0009929AF80030002B00F0A28000234FF049
:101F9C00FF32CDE905230AF1010A049307938DF86A
:101FAC0053301A935446052214F8011B514800F083
:101FBC0041FA049AD8B9D00644BF20238DF8533087
:101FCC00110744BF2B238DF853309AF800302A2B7D
:101FDC0015D0544600204FF00A0C079A214611F8F0
:101FEC00013B303B092B4ED9B0B1079214E0A0EB6A
:101FFC00080309FA03F31343A2460493D2E7039BA5
:10200C00191D1B680391002BBBBF5B4242F00202FF
:10201C0007930793B8BF049223782E2B0CD16378C7
:10202C002A2B35D1039B02341A1D1B680392002BFB
:10203C00B8BF4FF0FF330593DFF8C8A0032250461A
:10204C00217800F0F7F940B14023A0EB0A0003FA25
:10205C0000F0049B01340343049314F8011B062283
:10206C0025488DF8281000F0E5F9002838D0234BCE
:10207C001BBB039B073323F0070308330393099B14
:10208C003344099367E70C4601200CFB0232A5E7A9
:10209C0000234FF00A0C194601340593204610F822
:1020AC00012B303A092A03D9002BC5D00591C3E77F
:1020BC00044601230CFB0121F0E703AB00932A46F5
:1020CC0038460F4B04A9AFF30080421C0646D6D10C
:1020DC00AB895B063FF52CAF09981DB0BDE8F08FBE
:1020EC0003AB00932A463846054B04A900F07CF854
:1020FC00EBE700BF412700084B2700080000000059
:10210C005D1E0008472700082DE9F0471646994642
:10211C008A680B6907469342B8BF1346336091F83F
:10212C0043200C46DDF820800AB10133336023686C
:10213C00990642BF336802333360256815F00605F3
:10214C0006D104F1190AE36832689B1AAB4228DC09
:10215C0094F84320131E226818BF012392062DD435
:10216C004946384604F14302C047013020D0236869
:10217C00E56803F00603042B18BF002532684FF006
:10218C000006A36808BFAD1A226908BF25EAE575E9
:10219C009342C4BF9B1AED181A34B5421AD10020D1
:1021AC0008E00123524649463846C047013003D166
:1021BC004FF0FF30BDE8F0870135C4E73020E1185F
:1021CC0081F843005A1C94F845102244023382F8DB
:1021DC004310C5E70123224649463846C047013023
:1021EC00E6D00136D9E700002DE9FF470C46277EE3
:1021FC009146782F80469A460C9904F1430207D8F1
:10220C00622F0AD8002F00F0D980582F00F0A4803C
:10221C0004F1420684F842703AE0A7F16303152BEF
:10222C00F6D801A050F823F08D220008A122000856
:10223C001D2200081D2200081D2200081D22000876
:10224C00A12200081D2200081D2200081D220008E2
:10225C001D220008AF230008D1220008912300089A
:10226C001D2200081D220008D12300081D22000891
:10227C00D12200081D2200081D2200089923000805
:10228C000B6804F142061A1D1B680A6084F8423080
:10229C000123A4E0256808682E0600F104030AD582
:1022AC0005680B60002D03DA2D236D4284F8433052
:1022BC000A235E4819E015F0400F05680B6018BF43
:1022CC002DB2EFE70B682568181D0860280601D5AC
:1022DC001D6802E06906FBD51D886F2F0CBF082313
:1022EC000A235248002184F843106668002EA8BFC8
:1022FC002168A660A4BF21F0040121600DB9002E55
:10230C004DD01646B5FBF3F103FB1157C75D06F82C
:10231C00017D2F46BB420D46F4D9082B0BD1236807
:10232C00DF0708D5236961689942DEBF302306F8C0
:10233C00013C06F1FF36921B22614B46214640467A
:10234C00CDF800A003AAFFF7DFFE01304CD14FF00F
:10235C00FF3004B0BDE8F087344884F845700E684F
:10236C00236856F8045B1F060E6014D5D90744BFCA
:10237C0043F0200323601DB9236823F0200323605E
:10238C001023AFE7236843F0200323607823284809
:10239C0084F84530E3E75E0648BFADB2E6E7164683
:1023AC00BBE70B6826681D1D60690D6035061B6850
:1023BC0001D5186002E07106FBD518800023164683
:1023CC002361BAE70B681A1D0A601E6800213046AB
:1023DC00626800F02FF808B1801B606063682361AD
:1023EC00002384F84330A8E7324649464046236927
:1023FC00D0470130ABD023689B0713D4E068039B14
:10240C009842B8BF1846A4E70123324649464046D5
:10241C00D04701309BD00135E36803995B1AAB427E
:10242C00F2DCEBE7002504F11906F5E7522700086A
:10243C0063270008034610B5C9B2024493421846FC
:10244C0001D1002003E0047801338C42F6D110BD99
:10245C000A44914200F1FF3300D1704710B511F8D6
:10246C00014B914203F8014FF9D110BD884210B5D0
:10247C0001EB020402D98442234607D8431EA14231
:10248C0008D011F8012B03F8012FF8E7014602449C
:10249C008A4200D110BD13F8014D02F8014DF7E747
:1024AC0038B50546002943D051F8043C0C1F002BCD
:1024BC00B8BFE41800F0D0F81E4A1368104633B9C0
:1024CC00636014602846BDE8384000F0CBB8A342E6
:1024DC000AD921686218934201BF1A685B685218C6
:1024EC00226063600460EDE71A465B680BB1A3429F
:1024FC00FAD911685018A0420BD120680144501829
:10250C0083421160DED118685B680144116053602E
:10251C00D8E702D90C232B60D4E7206821188B4212
:10252C0001BF19685B680918216063605460C9E7D2
:10253C0038BD00BFC0000020F8B5CD1C25F0030548
:10254C0008350C2D38BF0C25002D064601DBA942A1
:10255C0003D90C2333600020F8BD00F07DF821492D
:10256C000A6814469CB9204F3B6823B92146304673
:10257C0000F062F838602946304600F05DF8431CE4
:10258C0023D10C233046336000F06CF8E3E723686A
:10259C005B1B17D40B2B03D923601C44256004E070
:1025AC006368A2420CBF0B605360304600F05AF8CF
:1025BC0004F10B00231D20F00700C21ACCD01B1A0B
:1025CC00A350C9E722466468CCE7C41C24F003047A
:1025DC00A042E3D0211A304600F02EF80130DDD1B4
:1025EC00CFE700BFC0000020C4000020F8B50746AC
:1025FC0014460E4621B91146BDE8F840FFF79CBFC2
:10260C0022B9FFF74DFF25462846F8BD00F030F8FB
:10261C00A0420FD221463846FFF78EFF0546002810
:10262C00F2D031462246FFF713FF31463846FFF70A
:10263C0037FFE9E73546E7E738B50023054D044693
:10264C0008462B6000F01EF8431C02D12B6803B126
:10265C00236038BD98010020014800F011B800BF7C
:10266C00A0010020014800F00CB800BFA001002020
:10267C0051F8043C181F002BBCBF0B58C0187047F6
:10268C0070477047044A05491368002B08BF0B4676
:10269C001844106018467047C8000020A80100209C
:1026AC00F8B500BFF8BC08BC9E467047F8B500BF33
:0826BC00F8BC08BC9E46704703
:1026C40043414E204D5347205245434549564544C6
:1026D4003A2030782578203A2030782578203078D0
:1026E4002578203078257820307825782030782592
:1026F400780D0A004C45443A202564204144433077
:102704003A20256420414443313A2025640D0A0AC5
:1027140000000000000000000000000001020304AB
:10272400060708090000000001020304020304056F
:10273400060708090A0B0C0D0E0F101000232D308C
:102744002B2000686C4C00656667454647003031B5
:102754003233343536373839414243444546003004
:102764003132333435363738396162636465660033
:042774003101000827
:042778000D01000847
:10277C00000000000000000000000000000000004D
:10278C00000000000000000000000000010000003C
:10279C0001000000000000000024F4000100000013
:1027AC0010000000380000200000000000000000B5
:1027BC00000000000000000000000000000000000D
:1027CC0000000000000000000000000000000000FD
:1027DC0000000000000000000000000000000000ED
:1027EC0000000000000000000000000000000000DD
:1027FC0000000000000000000000000000000000CD
:08280C000000000000000000C4
:0400000508001D8949
:00000001FF
