:020000040800F2
:1000000000500020F91800084503000847030008C5
:10001000490300084B0300084D03000800000000DE
:100020000000000000000000000000004F03000876
:1000300051030008000000005303000855030008A6
:100040004119000841190008411900084119000828
:100050004119000841190008411900084119000818
:100060004119000841190008411900084119000808
:1000700041190008411900084119000841190008F8
:1000800041190008411900084119000841190008E8
:100090005D030008411900084119000841190008D2
:1000A00041190008411900084119000841190008C8
:1000B00041190008411900084119000841190008B8
:1000C00041190008411900084119000841190008A8
:1000D0004119000841190008411900084119000898
:1000E00041190008411900084119000800000000EA
:1000F0000000000000000000000000000000000000
:0C01000000000000000000005FF808F1A3
:10010C0010B5054C237833B9044B13B10448AFF345
:10011C0000800123237010BD70000020000000003F
:10012C001C22000808B5034B1BB103490348AFF36D
:10013C00008008BD00000000740000201C22000894
:10014C00034613F8012B002AFBD1181A013870470B
:10015C00F0B585B001F00AFA01F014FA01F084FA56
:10016C0001F030FB01F08CFB694B01221A7000246A
:10017C002746254661E06749674801F063FA002885
:10018C0067D144F00104012242F2200100F18040C9
:10019C0000F5843001F05FFA60495F4801F052FAD3
:1001AC00002865D144F00204012241F2100100F153
:1001BC00804000F5843001F04EFA48F28001564838
:1001CC0001F040FA002862D144F00404012240F608
:1001DC00080100F1804000F5843001F03CFA40F257
:1001EC0001114F4801F02EFA002860D144F00804A8
:1001FC00012240F2044100F1804000F5843001F00E
:10020C002AFA484E3470484F4FF00071384601F0CE
:10021C00A1FA85B27070C0F30320B0704349384620
:10022C0001F098FA87B2F070C0F303203071384BAC
:10023C0002221A70322001F0A0F9354B1B78022BE8
:10024C0045D0032B4BD0012B95D0314B01221A708A
:10025C00F0E73049304801F0F5F901289CD104F061
:10026C00FE04002242F220012B4801F0F4F993E73E
:10027C002A49294801F0E6F901289ED104F0FD0431
:10028C00002241F21001244801F0E5F995E748F20B
:10029C008001214801F0D6F90128A0D104F0FB041B
:1002AC00002240F608011C4801F0D5F997E740F20E
:1002BC0001111B4801F0C6F90128A2D104F0F70482
:1002CC00002240F20441144801F0C5F999E70521D8
:1002DC00144801F0A1FA0E4B03221A70AAE7114A36
:1002EC009378D17810790290019100935378127819
:1002FC0040F225110E4801F0DDFA3B462A46214614
:10030C000C4801F0D7FA024B01221A7092E700BF99
:10031C008C000020800080040008014001000104D2
:10032C00000C014098000020002401400100300224
:10033C005C2200088C2200087047FEE7FEE7FEE70F
:10034C00FEE770477047704708B500F0FFF808BD2E
:10035C0008B5024800F073FD08BD00BFB0000020D6
:10036C000F4B1A6842F001021A6059680D4A0A4094
:10037C005A601A6822F0847222F480321A601A6869
:10038C0022F480221A605A6822F4FE025A604FF45A
:10039C001F029A60044B4FF000629A60704700BFD6
:1003AC00001002400000FFF800ED00E082B00A4BA4
:1003BC009A6942F001029A619A6902F00102009274
:1003CC00009ADA6942F08052DA61DB6903F08053FB
:1003DC000193019B02B070470010024030B587B00A
:1003EC000023029303930493059302681B4B9A42D8
:1003FC0001D007B030BD03F5D633DA6942F0007294
:10040C00DA61DA6902F000720092009A9A6942F09D
:10041C0004029A619B6903F004030193019B4FF45E
:10042C00006302930024039404940D4D02A9284602
:10043C0000F0D8F84FF48053029302230393032364
:10044C00059302A9284600F0CDF822462146142037
:10045C0000F0EAF9142000F01BFACAE7006400402F
:10046C000008014010B586B0002302930393049357
:10047C0005930268174B9A4201D006B010BD03F5E4
:10048C0058439A6942F480429A619A6902F4804214
:10049C000092009A9A6942F004029A619B6903F0F7
:1004AC0004030193019B4FF4007302930223039303
:1004BC0003230593084C02A9204600F093F84FF44F
:1004CC008063029300230393049302A9204600F057
:1004DC0089F8D2E7003801400008014010B5044605
:1004EC000E4B18784FF47A73B3FBF0F30C4A106888
:1004FC00B0FBF3F000F0DAF968B90F2C01D9012048
:10050C000AE0002221464FF0FF3000F08DF9054B38
:10051C001C60002000E0012010BD00BF0400002082
:10052C00000000200800002008B5074A136843F0BB
:10053C0010031360032000F065F90020FFF7CEFFD5
:10054C00FFF734FF002008BD00200240034A116869
:10055C00034B1B780B441360704700BFAC000020AA
:10056C0004000020014B1868704700BFAC0000204D
:10057C0038B50446FFF7F6FF0546B4F1FF3F02D04D
:10058C00044B1B781C44FFF7EDFF401BA042FAD331
:10059C0038BD00BF04000020014B1868704700BF35
:1005AC000000002008B5FFF7F7FF044B5B68C3F3AE
:1005BC000223034AD35CD84008BD00BF00100240A0
:1005CC00B022000808B5FFF7E7FF044B5B68C3F3E4
:1005DC00C223034AD35CD84008BD00BF00100240C0
:1005EC00B0220008F0B482B000252C46A3E07F4F67
:1005FC00BB4210D007D97E4FBB420CD007F58037D9
:10060C00BB4208D013E0A7F58017BB4203D007F517
:10061C007027BB4207D18B68002B58D0012B51D0CF
:10062C004261082503E0A7F58017BB42F3D0FF2EEB
:10063C004FD88446FF2E4FD8A200DCF800300F278D
:10064C00974023EA070305FA02F21343CCF8003073
:10065C004B6813F0805F6DD0664B9A6942F00102D3
:10066C009A619B6903F001030193019BA208971CFB
:10067C00614B53F8273004F00307BF004FF00F0C09
:10068C000CFA07FC23EA0C0C5C4B98422AD003F5BD
:10069C008063984200F08A8003F58063984200F0F2
:1006AC00878003F5806398421AD004231BE0CD6841
:1006BC00BDE7CD680435BAE7CD680835B7E7CD6836
:1006CC000C35B4E702610825B1E70025AFE7042536
:1006DC00ADE700F1040CADE7A4F108029200ACE721
:1006EC00032300E00023BB4043EA0C030232424FD9
:1006FC0047F822304B6813F4803F5BD0404A1368B4
:10070C00334313604B6813F4003F59D03C4A536891
:10071C00334353604B6813F4801F57D0384A9368A7
:10072C00334393604B6813F4001F55D0344AD3689D
:10073C001E43D66001340B6833FA04F252D0012206
:10074C00A24003EA020632EA0303F3D14B68122BF0
:10075C003FF64DAF122B3FF66AAF01A757F823F0C7
:10076C0023060008BB060008C5060008D7060008CB
:10077C003B0600083B0600083B0600083B06000849
:10078C003B0600083B0600083B0600083B06000839
:10079C003B0600083B0600083B0600083B06000829
:1007AC003B060008BF060008CB06000801239AE7A9
:1007BC00022398E7124A136823EA06031360A1E7A1
:1007CC000F4A536823EA06035360A3E70C4A936865
:1007DC0023EA06039360A5E7094AD36823EA0606D1
:1007EC00D660A7E702B0F0BC704700BF0000221033
:1007FC0000003110001002400000014000080140D0
:10080C0000040140074AD36823F4E0631B041B0C6B
:10081C00000200F4E060034343F0BF6343F4003391
:10082C00D360704700ED00E030B4174BDB68C3F3C6
:10083C000223C3F10704042C28BF04241D1D062D1C
:10084C0018D9033B4FF0FF3505FA04F421EA0401F3
:10085C00994005FA03F322EA0303194300280BDB42
:10086C000901C9B200F1604000F5614080F8001345
:10087C0030BC70470023E5E700F00F000901C9B256
:10088C00024B1954F4E700BF00ED00E014ED00E05A
:10089C00002807DB00F01F02400901239340024AA5
:1008AC0042F82030704700BF00E100E00138B0F1A1
:1008BC00807F0AD2064B5860064AF02182F823103A
:1008CC000020986007221A6070470120704700BF13
:1008DC0010E000E000ED00E0002800F0A18038B549
:1008EC00044690F82030D3B12268136823F0020339
:1008FC001360FFF737FE054623685A6812F0020FA3
:10090C0010D0FFF72FFE401B0A28F5D9636A43F479
:10091C0000336362052384F82030012038BDFFF7D3
:10092C005DFDE1E71A6842F001021A60FFF71AFE5A
:10093C00054623685A6812F0010F0DD1FFF712FE1D
:10094C00401B0A28F5D9636A43F40033636205231C
:10095C0084F820300120E1E7227E012A3DD01A687C
:10096C0022F080021A60637E012B3BD02268136850
:10097C0023F040031360A37E012B39D02268136847
:10098C0023F020031360E37E012B37D02268136819
:10099C0043F010031360237F012B35D022681368BA
:1009AC0023F008031360637F012B33D02268136894
:1009BC0023F004031360A368E26813432269134312
:1009CC00626913436268013A21681343CB610020CA
:1009DC006062012384F82030A0E71A6842F080029C
:1009EC001A60C0E72268136843F040031360C2E743
:1009FC002268136843F020031360C4E7226813686D
:100A0C0023F010031360C6E72268136843F0080351
:100A1C001360C8E72268136843F004031360CAE745
:100A2C0001207047026890F82030013BDBB2012BAB
:100A3C0005D9436A43F4802343620120704770B4A4
:100A4C00D2F8003243F00103C2F800324B6903F0D4
:100A5C001F03012000FA03F3D2F81C02DC4320EA46
:100A6C000300C2F81C02C869A8B9D2F80C022040D5
:100A7C00C2F80C02CE688D88486945EA06454830B4
:100A8C0042F830508E680D88486945EA0645483072
:100A9C0002EBC0004560C869012819D0886970BB99
:100AAC00D2F804022040C2F80402086968BBD2F8EC
:100ABC0014020440C2F81442096A01292BD0D2F85E
:100ACC00003223F00103C2F80032002070BC7047E2
:100ADC00D2F80C021843C2F80C020E688D884869D3
:100AEC0045EA0645483042F830508E688D89486991
:100AFC0045EA0645483002EBC0004560CEE7D2F827
:100B0C0004021843C2F80402CFE7D2F814021843C7
:100B1C00C2F81402D0E7D2F81C120B43C2F81C32F4
:100B2C00CDE770B5044690F82050EDB2012D06D0FB
:100B3C00436A43F4002343620125284670BD022317
:100B4C0080F820300268136823F001031360FFF76C
:100B5C0009FD064623685B6813F0010F0CD0FFF704
:100B6C0001FD831B0A2BF5D9636A43F400336362DE
:100B7C00052384F82030E0E700256562DDE770B4DA
:100B8C0090F820400568AD68013CE4B2012C65D8B2
:100B9C0015F0E05F5CD0C5F30164022C05D9436A03
:100BAC0043F40003436201205DE00125A5401D6074
:100BBC008B68002B39D10E68CB68056843EA465622
:100BCC0004F118031B01EE5003680D6904F11806BB
:100BDC0003EB06135D600B7D012B31D0D17993793A
:100BEC001B0443EA0163517943EA01231579016837
:100BFC002B4301EB0411C1F88C31D17893781B0491
:100C0C0043EA0163517843EA0123117802680B43EC
:100C1C0002EB0412C2F8883102681834240113590B
:100C2C0043F00103135100201DE04D6843EAC50356
:100C3C00CD6806682B4304F118052D017351C3E7E9
:100C4C00036803EB0613596841F480715960C5E7DA
:100C5C00436A43F400134362012004E0436A43F403
:100C6C0080234362012070BC704790F82030013B18
:100C7C00DBB2012B01D9002070470368986810F093
:100C8C00806000D001209A6812F0006F00D0013013
:100C9C009B6813F0805FEFD00130704790F82030E4
:100CAC00013BDBB2012B01D90020704703689B6824
:100CBC0003EA8163B3EB816F01D001207047002000
:100CCC00704730B490F82040013CE4B2012C00F2A3
:100CDC00918051B90468E46814F0030F10D1436A91
:100CEC0043F400134362012089E00468246914F082
:100CFC00030F05D1436A43F40013436201207EE0E5
:100D0C00056801F11B0424012C5904F004049460BF
:100D1C00002C61D1056801F11B0424012C59640DD0
:100D2C001460056801F11B0424012D5905F002051E
:100D3C00D560056825446D6805F00F0515610568DB
:100D4C0025446D68C5F30725956105682C446468D6
:100D5C00240C5461026802EB0112D2F8B8211A700B
:100D6C00026802EB0112D2F8B821C2F307225A70C2
:100D7C00026802EB0112D2F8B821C2F307429A7052
:100D8C00026802EB0112D2F8B821120EDA70026876
:100D9C0002EB0112D2F8BC211A71026802EB0112AB
:100DAC00D2F8BC21C2F307225A71026802EB01127D
:100DBC00D2F8BC21C2F307429A71026802EB01120D
:100DCC00D2F8BC21120EDA7171B90268D36843F003
:100DDC002003D360002012E0056801F11B042401FC
:100DEC002C59E40854609CE70268136943F0200313
:100DFC001361EFE7436A43F480234362012030BC64
:100E0C00704790F82030013BDBB2012B05D9436AC7
:100E1C0043F48023436201207047026853691943ED
:100E2C00516100207047704770477047704770479A
:100E3C0070477047704770477047704770472DE98F
:100E4C00F84F054603685C69D3F804809F68D3F8B3
:100E5C000CB0D3F810A0D3F8189014F001063BD0C6
:100E6C0017F0010616D001229A6017F0020F08D174
:100E7C0017F0040F0CD117F0080606D04FF480566B
:100E8C0008E0FFF7D0FF002604E0FFF7CFFF01E0FA
:100E9C004FF4006617F4807F0DD02B684FF48072EE
:100EAC009A6017F4007F40F0868017F4806F00F092
:100EBC00868046F4005617F4803F0DD02B684FF413
:100ECC0080329A6017F4003F40F0838017F4802F33
:100EDC0000F0838046F4004614F0080F07D01BF096
:100EEC00100F04D046F400762B681022DA6014F050
:100EFC00040F02D01BF0080F79D114F0020F04D0AC
:100F0C002B68DB6813F0030F78D114F0400F07D077
:100F1C001AF0100F04D046F480662B6810221A6168
:100F2C0014F0200F02D01AF0080F6BD114F0100F30
:100F3C0004D02B681B6913F0030F6AD114F4003F23
:100F4C0002D018F0100F68D114F4803F02D018F0C2
:100F5C00080F69D114F4004F7AD018F0040F74D034
:100F6C0014F4807F04D019F0010F01D046F0010673
:100F7C0014F4007F04D019F0020F01D046F00206E1
:100F8C0014F4806F04D019F0040F01D046F004065D
:100F9C0014F4006F59D019F0700956D0B9F1400F04
:100FAC0065D058D8B9F1200F5ED0B9F1300F42D1CD
:100FBC0046F0200644E02846FFF736FF7BE717F49F
:100FCC00006F02D046F4804675E72846FFF72FFFE6
:100FDC0071E72846FFF729FF7EE717F4002F02D0B0
:100FEC0046F4803678E72846FFF722FF74E72B6833
:100FFC000822DA602846FFF71CFF7EE7284600F03F
:10100C002FFC82E72B6808221A612846FFF713FF92
:10101C008CE72846FFF70EFF90E72B6810225A60EA
:10102C002846FFF709FF8FE72B6808225A602846ED
:10103C00FFF703FF8EE7B9F1100F01D146F0080658
:10104C002A68936923F0700393612B6804225A6019
:10105C009EB9BDE8F88FB9F1500F0BD0B9F1600F04
:10106C00EED146F48076EBE746F01006E8E746F062
:10107C004006E5E746F08006E2E76B6A1E436E62C7
:10108C002846FFF7DBFEE4E738B50446026813692F
:10109C0023F44053C1680B43136183680269134303
:1010AC0042691A430168CB6823F4B05323F00C0354
:1010BC001343CB600268536923F4407381690B437B
:1010CC0053610268214B9A421FD0FFF76BFA00EB79
:1010DC00800000EB800063689B00B0FBF3F01C4DBC
:1010EC00A5FB00325109642303FB11031B013233AE
:1010FC00A5FB03235B0903F0F00202EB011203F0E2
:10110C000F03216813448B6038BDFFF75BFA00EBCB
:10111C00800000EB800063689B00B0FBF3F00C4D8B
:10112C00A5FB00325109642303FB11031B0132336D
:10113C00A5FB03235B0903F0F00202EB011203F0A1
:10114C000F03216813448B60DEE700BF00380140B9
:10115C001F85EB512DE9F84305460F461646994677
:10116C00DDF820802C68246837EA04030CBF0124C6
:10117C000024B4421FD1B8F1FF3FF3D0B8F1000FF7
:10118C0005D0FFF7EFF9A0EB09004045EAD92A6832
:10119C00D36823F4D073D3602A68536923F0010316
:1011AC005361202385F8393085F83A30002385F8CF
:1011BC003830032000E00020BDE8F88358B310B5A8
:1011CC00044690F839300BB3242384F83930226864
:1011DC00D36823F40053D3602046FFF755FF2268F1
:1011EC00136923F4904313612268536923F02A0393
:1011FC0053612268D36843F40053D3600020E0634A
:10120C00202384F8393084F83A3010BD80F8383017
:10121C00FFF728F9D8E7012070472DE9F04182B09B
:10122C001E4690F83930DBB2202B58D104460D46BF
:10123C009046002957D0002A57D090F83830012B0F
:10124C0055D0012380F838300023C363212380F864
:10125C003930FFF787F90746A4F82480A4F82680D4
:10126C0017E000963B46002280212046FFF772FFD4
:10127C0000283ED12B882268C3F3080353602369EE
:10128C000BB9023505E0013503E015F8012B236895
:10129C005A60E38C9BB29BB1E28C92B2013A92B24F
:1012AC00E284A368B3F5805FDBD000963B46002256
:1012BC0080212046FFF74EFF0028E6D003200FE0E8
:1012CC0000963B46002240212046FFF743FF90B991
:1012DC00202384F83930002384F8383000E00220D1
:1012EC0002B0BDE8F0810120FAE70120F8E7022006
:1012FC00F6E70320F4E70320F2E7F0B50D68C5F339
:10130C000F2595FAA5F2B2FA82F235E0A2F10804A3
:10131C004FF00113A34043F0806339E0C45993FAB2
:10132C00A3F6B6FA86F6B6004FF0030C0CFA06F6E6
:10133C0024EA060C93FAA3F6B6FA86F6B6008C6885
:10134C0004FA06F646EA0C06C651CC6893FAA3FCDE
:10135C00BCFA8CFC4FEA8C0C4FF0040E0EFA0CFC11
:10136C0026EA0C0693FAA3F3B3FA83F39B0004FA70
:10137C0003F33343C351013235FA02F335D0012361
:10138C0093402B42F7D0072AC0D840F20113934068
:10139C004E681F0EC45993FAA3FCBCFA8CFC4FEA9E
:1013AC008C0C4FF00F0E0EFA0CFC24EA0C0493FA82
:1013BC00A3FCBCFA8CFC4FEA8C0C06FA0CF63443FA
:1013CC00C451C6681C0A26EA132C94FAA4F4B4FA85
:1013DC0084F40E6906FA04F44CEA0404C4604C6804
:1013EC00012C9BD0092CC6D198E70020F0BD000041
:1013FC000C4B9A6803F580639B68134313F0010F41
:10140C000ED10B6833B1426822F47022134343604F
:10141C0000207047436823F470234360002070471A
:10142C000120704700240140836813F0010F0DD197
:10143C00436823F480734A6813434360836823F43E
:10144C0000630A68134383600020704701207047D3
:10145C004B68826812F0010F23D110B4DBB14268E3
:10146C0022F468428C68234313434360836823F45B
:10147C00602323F481730A68CC6822430C692243ED
:10148C00134383604B68C26A22F470021343C36235
:10149C00002010BC7047426822F46842134343603A
:1014AC00E4E7012070470000014B1860704700BF53
:1014BC000000002008B52A4A136823F0070343F004
:1014CC0001031360264B1B6803F00703012BF9D1B2
:1014DC00244A136823F0F80343F080031360136865
:1014EC0043F0010313601F4B1B6813F0020FFAD07B
:1014FC001C4A536823F47C1343F4E01353601368C1
:10150C0043F080731360174B1B6813F0007FFAD005
:10151C00144B5A6822F0F0025A605A6822F4E062C6
:10152C005A605A6822F460525A605A6822F00302D8
:10153C0042F002025A600B4B5B6803F00C03082B61
:10154C00F9D10948FFF7B0FF0020FEF7C7FF054AA5
:10155C00536823F4404343F48043536008BD00BFF9
:10156C0000200240001002400051250208B5FEF791
:10157C00DBFFFFF79FFF08BD704708B5FEF7F8FFCC
:10158C0008BD0000F0B58BB000250995274B9A6972
:10159C0042F010029A619A6902F010020492049AC5
:1015AC009A6942F020029A619A6902F02002039231
:1015BC00039A9A6942F004029A619A6902F0040251
:1015CC000292029A9A6942F008029A619B6903F0AE
:1015DC0008030193019B16484FF400534361154CCB
:1015EC003C236361144B059301270697022607964B
:1015FC00089505A9FFF781FE43F63C430593069732
:10160C000796089505A92046FFF777FE0B4B059327
:10161C000423069305A92046FFF76FFE084B05939C
:10162C0005A92046FFF769FE0BB0F0BD0010024083
:10163C0000100140000801402000200481810104B9
:10164C0080008004836803EA11239BB20BB1012054
:10165C007047002070471AB1C1F30F210161704728
:10166C00C1F30F214161704730B591B000240E9445
:10167C000F940D94089409940A940B940C9405946B
:10168C00069407942E4B9A6942F400729A619A69F7
:10169C0002F400720292029A9A6942F004029A6170
:1016AC009B6903F004030193019B40F20333039302
:1016BC00049403A92348FFF720FE0E940F94224DA7
:1016CC000EA92846FFF7B0FE0D940DA92846FFF78A
:1016DC008FFE4FF46023089309940A940B940C9496
:1016EC0008A92846FFF7B4FE18494FF4407393FA43
:1016FC00A3F3B3FA83F34FF4007222FA03F351F815
:10170C00232022F01F0241F8232011484FF00073D0
:10171C0093FAA3F2B2FA82F2D34050F823204FF09E
:10172C00F87191FAA1F422F0070291FAA1F140F8B4
:10173C002320AB6843F00103AB6011B030BD00BF98
:10174C000010024000080140002401402C240140FC
:10175C000C24014010B400F12C044FF4407393FAA4
:10176C00A3F3B3FA83F34FF40072DA4054F8223047
:10177C0023F01F0301F01F010B4344F82230836850
:10178C0043F4A0038360036813F0020FFBD0C06C1A
:10179C0080B210BC7047000030B58BB06C46074D62
:1017AC000FCD0FC40FCD0FC495E8030084E80300E0
:1017BC0069460348FFF736F90BB030BD34220008F8
:1017CC00B000002010B51248124B0360092343608F
:1017DC0000238360C3604FF4402202614FF48012F7
:1017EC004261037643768376C37603774377FFF7BC
:1017FC0073F850B9FFF7D0FF054C02212046FFF7D4
:10180C0000FB2046FFF78DF910BDFFF7B5FEF1E7A1
:10181C00B00000200064004010B588B0044640F2CF
:10182C002513029300230493059306910B48FFF7AD
:10183C001CFA38B901990948FFF730FA0028F9D198
:10184C0008B010BD01AB224602A90448FFF797F976
:10185C000028EFD0FFF790FEECE700BFB0000020AF
:10186C0008B5054B054A0021FFF72BFA00B908BD56
:10187C00FFF782FEFBE700BF90000020D80000209D
:10188C0008B50A480A4B03604FF4E1334360002368
:10189C008360C36003610C2242618361C361FFF703
:1018AC008DFC00B908BDFFF767FEFBE7F4000020D4
:1018BC00003801400FB400B5C3B044AA52F8041B61
:1018CC00019202A800F072F802A8FEF739FC4FF65C
:1018DC00FF7382B202A90448FFF79FFC002043B0BB
:1018EC005DF804EB04B07047F4000020002103E025
:1018FC000B4B5B58435004310A480B4B42189A422D
:10190C00F6D30A4A02E0002342F8043B084B9A4201
:10191C00F9D3FEF725FD00F00FF8FEF719FC704720
:10192C00F42200080000002070000020700000204D
:10193C0044010020FEE7000070B500260C4D0D4C54
:10194C00641BA410A64209D100F062FC00260A4DCB
:10195C000A4C641BA410A64205D170BD55F8043B7B
:10196C0098470136EEE755F8043B98470136F2E705
:10197C00EC220008EC220008EC220008F0220008FF
:10198C0000B59BB0009104916FF00041059102915C
:10199C0005490391694600F06FF80022009B1A700C
:1019AC001BB05DF804FB00BF0802FFFF13460A469C
:1019BC00014602480068FFF7E3BF00BF0C0000209F
:1019CC002DE9F0478E6882469E420C4690461F4693
:1019DC0038D88A8912F4906F32D02568096901339E
:1019EC00A5EB010965694B4405EB450505EBD57580
:1019FC006D109D4238BF1D46530531D5294600F068
:101A0C0053FB064650B90C234FF0FF30CAF8003098
:101A1C00A38943F04003A381BDE8F0874A462169BE
:101A2C0000F0CEFAA38923F4906343F08003A381E2
:101A3C0026614E4426603E466561A5EB0905A5600E
:101A4C00BE4200D93E4632464146206800F0C6FAF6
:101A5C00A36822689B1B32440020A3602260DBE752
:101A6C002A4600F07BFB06460028E1D1504621694E
:101A7C0000F0CEFAC7E700002DE9F04F98468B89AD
:101A8C0007461B060D4614469DB00ED50B6963B96F
:101A9C00402100F009FB2860286120B90C233B6031
:101AAC004FF0FF30D1E040236B61002309932023DA
:101ABC008DF8293030234FF00109CDF80C80DFF878
:101ACC00A4818DF82A3023469A4613F8012B0AB1CB
:101ADC00252AF9D1BAEB040B0BD05B4622462946DA
:101AEC003846FFF76DFF013000F0AA80099A5A447E
:101AFC0009929AF80030002B00F0A28000234FF0DE
:101B0C00FF32CDE905230AF1010A049307938DF8FE
:101B1C0053301A935446052214F8011B514800F017
:101B2C0041FA049AD8B9D00644BF20238DF853301B
:101B3C00110744BF2B238DF853309AF800302A2B11
:101B4C0015D0544600204FF00A0C079A214611F884
:101B5C00013B303B092B4ED9B0B1079214E0A0EBFE
:101B6C00080309FA03F31343A2460493D2E7039B39
:101B7C00191D1B680391002BBBBF5B4242F0020294
:101B8C0007930793B8BF049223782E2B0CD163785C
:101B9C002A2B35D1039B02341A1D1B680392002B90
:101BAC00B8BF4FF0FF330593DFF8C8A003225046AF
:101BBC00217800F0F7F940B14023A0EB0A0003FABA
:101BCC0000F0049B01340343049314F8011B062218
:101BDC0025488DF8281000F0E5F9002838D0234B63
:101BEC001BBB039B073323F0070308330393099BA9
:101BFC003344099367E70C4601200CFB0232A5E73E
:101C0C0000234FF00A0C194601340593204610F8B6
:101C1C00012B303A092A03D9002BC5D00591C3E713
:101C2C00044601230CFB0121F0E703AB00932A4689
:101C3C0038460F4B04A9AFF30080421C0646D6D1A0
:101C4C00AB895B063FF52CAF09981DB0BDE8F08F52
:101C5C0003AB00932A463846054B04A900F07CF8E8
:101C6C00EBE700BFB8220008C22200080000000009
:101C7C00CD190008BE2200082DE9F04716469946FA
:101C8C008A680B6907469342B8BF1346336091F8D4
:101C9C0043200C46DDF820800AB101333360236801
:101CAC00990642BF336802333360256815F0060588
:101CBC0006D104F1190AE36832689B1AAB4228DC9E
:101CCC0094F84320131E226818BF012392062DD4CA
:101CDC004946384604F14302C047013020D02368FE
:101CEC00E56803F00603042B18BF002532684FF09B
:101CFC000006A36808BFAD1A226908BF25EAE5757E
:101D0C009342C4BF9B1AED181A34B5421AD1002065
:101D1C0008E00123524649463846C047013003D1FA
:101D2C004FF0FF30BDE8F0870135C4E73020E118F3
:101D3C0081F843005A1C94F845102244023382F86F
:101D4C004310C5E70123224649463846C0470130B7
:101D5C00E6D00136D9E700002DE9FF470C46277E77
:101D6C009146782F80469A460C9904F1430207D885
:101D7C00622F0AD8002F00F0D980582F00F0A480D1
:101D8C0004F1420684F842703AE0A7F16303152B84
:101D9C00F6D801A050F823F0FD1D0008111E000814
:101DAC008D1D00088D1D00088D1D00088D1D00085F
:101DBC00111E00088D1D00088D1D00088D1D0008CA
:101DCC008D1D00081F1F0008411E0008011F000880
:101DDC008D1D00088D1D0008411F00088D1D000879
:101DEC00411E00088D1D00088D1D0008091F0008EC
:101DFC000B6804F142061A1D1B680A6084F8423015
:101E0C000123A4E0256808682E0600F104030AD516
:101E1C0005680B60002D03DA2D236D4284F84330E6
:101E2C000A235E4819E015F0400F05680B6018BFD7
:101E3C002DB2EFE70B682568181D0860280601D540
:101E4C001D6802E06906FBD51D886F2F0CBF0823A7
:101E5C000A235248002184F843106668002EA8BF5C
:101E6C002168A660A4BF21F0040121600DB9002EE9
:101E7C004DD01646B5FBF3F103FB1157C75D06F8C1
:101E8C00017D2F46BB420D46F4D9082B0BD123689C
:101E9C00DF0708D5236961689942DEBF302306F855
:101EAC00013C06F1FF36921B22614B46214640460F
:101EBC00CDF800A003AAFFF7DFFE01304CD14FF0A4
:101ECC00FF3004B0BDE8F087344884F845700E68E4
:101EDC00236856F8045B1F060E6014D5D90744BF5F
:101EEC0043F0200323601DB9236823F020032360F3
:101EFC001023AFE7236843F020032360782328489E
:101F0C0084F84530E3E75E0648BFADB2E6E7164617
:101F1C00BBE70B6826681D1D60690D6035061B68E4
:101F2C0001D5186002E07106FBD518800023164617
:101F3C002361BAE70B681A1D0A601E68002130463F
:101F4C00626800F02FF808B1801B60606368236141
:101F5C00002384F84330A8E73246494640462369BB
:101F6C00D0470130ABD023689B0713D4E068039BA8
:101F7C009842B8BF1846A4E701233246494640466A
:101F8C00D04701309BD00135E36803995B1AAB4213
:101F9C00F2DCEBE7002504F11906F5E7C92200088D
:101FAC00DA220008034610B5C9B20244934218461F
:101FBC0001D1002003E0047801338C42F6D110BD2E
:101FCC000A44914200F1FF3300D1704710B511F86B
:101FDC00014B914203F8014FF9D110BD884210B565
:101FEC0001EB020402D98442234607D8431EA142C6
:101FFC0008D011F8012B03F8012FF8E70146024431
:10200C008A4200D110BD13F8014D02F8014DF7E7DB
:10201C0038B50546002943D051F8043C0C1F002B61
:10202C00B8BFE41800F0D0F81E4A1368104633B954
:10203C00636014602846BDE8384000F0CBB8A3427A
:10204C000AD921686218934201BF1A685B6852185A
:10205C00226063600460EDE71A465B680BB1A34233
:10206C00FAD911685018A0420BD1206801445018BD
:10207C0083421160DED118685B68014411605360C3
:10208C00D8E702D90C232B60D4E7206821188B42A7
:10209C0001BF19685B680918216063605460C9E767
:1020AC0038BD00BFA0000020F8B5CD1C25F00305FD
:1020BC0008350C2D38BF0C25002D064601DBA94236
:1020CC0003D90C2333600020F8BD00F07DF82149C2
:1020DC000A6814469CB9204F3B6823B92146304608
:1020EC0000F062F838602946304600F05DF8431C79
:1020FC0023D10C233046336000F06CF8E3E72368FF
:10210C005B1B17D40B2B03D923601C44256004E004
:10211C006368A2420CBF0B605360304600F05AF863
:10212C0004F10B00231D20F00700C21ACCD01B1A9F
:10213C00A350C9E722466468CCE7C41C24F003040E
:10214C00A042E3D0211A304600F02EF80130DDD148
:10215C00CFE700BFA0000020A4000020F8B5074680
:10216C0014460E4621B91146BDE8F840FFF79CBF56
:10217C0022B9FFF74DFF25462846F8BD00F030F890
:10218C00A0420FD221463846FFF78EFF05460028A5
:10219C00F2D031462246FFF713FF31463846FFF79F
:1021AC0037FFE9E73546E7E738B50023054D044628
:1021BC0008462B6000F01EF8431C02D12B6803B1BB
:1021CC00236038BD34010020014800F011B800BF75
:1021DC003C010020014800F00CB800BF3C0100207D
:1021EC0051F8043C181F002BBCBF0B58C01870478B
:1021FC0070477047044A05491368002B08BF0B460B
:10220C001844106018467047A800002048010020B0
:10221C00F8B500BFF8BC08BC9E467047F8B500BFC7
:08222C00F8BC08BC9E46704797
:10223400000000000000000000000000000000009A
:102244000000000000000000000000000100000089
:10225400010000000000000043414E205458204D6E
:1022640053473A2030782578203A20307825782052
:1022740030782578203078257820307825782030FB
:102284007825780D0A000000494E5055543A20250F
:10229400642020414443303A2025642020414443B3
:1022A400313A2025640D0A0A0000000000000000F5
:1022B40001020304232D302B2000686C4C0065665A
:1022C4006745464700303132333435363738394183
:1022D4004243444546003031323334353637383999
:0822E40061626364656600009D
:0422EC0031010008B4
:0422F0000D010008D4
:1022F4000024F40001000000100000001000002081
:1023040000000000000000000000000000000000C9
:1023140000000000000000000000000000000000B9
:1023240000000000000000000000000000000000A9
:102334000000000000000000000000000000000099
:102344000000000000000000000000000000000089
:102354000000000000000000000000000000000079
:04000005080018F9DE
:00000001FF
